{
  "_format": "hh-sol-artifact-1",
  "contractName": "SalaryVault",
  "sourceName": "contracts/SalaryVault.sol",
  "abi": [
    {
      "inputs": [],
      "name": "HandlesAlreadySavedForRequestID",
      "type": "error"
    },
    {
      "anonymous": false,
      "inputs": [
        {
          "indexed": true,
          "internalType": "bytes32",
          "name": "positionHash",
          "type": "bytes32"
        },
        {
          "indexed": false,
          "internalType": "uint32",
          "name": "averageSalary",
          "type": "uint32"
        },
        {
          "indexed": false,
          "internalType": "uint32",
          "name": "count",
          "type": "uint32"
        }
      ],
      "name": "PositionStatsPublished",
      "type": "event"
    },
    {
      "anonymous": false,
      "inputs": [
        {
          "indexed": true,
          "internalType": "bytes32",
          "name": "positionHash",
          "type": "bytes32"
        },
        {
          "indexed": false,
          "internalType": "uint256",
          "name": "requestId",
          "type": "uint256"
        }
      ],
      "name": "PositionStatsRequested",
      "type": "event"
    },
    {
      "anonymous": false,
      "inputs": [
        {
          "indexed": true,
          "internalType": "uint256",
          "name": "entryId",
          "type": "uint256"
        },
        {
          "indexed": true,
          "internalType": "address",
          "name": "submitter",
          "type": "address"
        }
      ],
      "name": "SalaryDeleted",
      "type": "event"
    },
    {
      "anonymous": false,
      "inputs": [
        {
          "indexed": true,
          "internalType": "uint256",
          "name": "entryId",
          "type": "uint256"
        },
        {
          "indexed": true,
          "internalType": "address",
          "name": "submitter",
          "type": "address"
        },
        {
          "indexed": false,
          "internalType": "string",
          "name": "position",
          "type": "string"
        }
      ],
      "name": "SalarySubmitted",
      "type": "event"
    },
    {
      "anonymous": false,
      "inputs": [
        {
          "indexed": true,
          "internalType": "uint256",
          "name": "entryId",
          "type": "uint256"
        },
        {
          "indexed": true,
          "internalType": "address",
          "name": "submitter",
          "type": "address"
        },
        {
          "indexed": false,
          "internalType": "string",
          "name": "newPosition",
          "type": "string"
        }
      ],
      "name": "SalaryUpdated",
      "type": "event"
    },
    {
      "anonymous": false,
      "inputs": [
        {
          "indexed": false,
          "internalType": "uint32",
          "name": "averageSalary",
          "type": "uint32"
        },
        {
          "indexed": false,
          "internalType": "uint32",
          "name": "totalCount",
          "type": "uint32"
        }
      ],
      "name": "StatsPublished",
      "type": "event"
    },
    {
      "anonymous": false,
      "inputs": [
        {
          "indexed": false,
          "internalType": "uint256",
          "name": "requestId",
          "type": "uint256"
        }
      ],
      "name": "StatsRequested",
      "type": "event"
    },
    {
      "inputs": [],
      "name": "deleteSalary",
      "outputs": [],
      "stateMutability": "nonpayable",
      "type": "function"
    },
    {
      "inputs": [],
      "name": "entryCount",
      "outputs": [
        {
          "internalType": "uint256",
          "name": "",
          "type": "uint256"
        }
      ],
      "stateMutability": "view",
      "type": "function"
    },
    {
      "inputs": [],
      "name": "getActiveEntryCount",
      "outputs": [
        {
          "internalType": "uint32",
          "name": "",
          "type": "uint32"
        }
      ],
      "stateMutability": "view",
      "type": "function"
    },
    {
      "inputs": [
        {
          "internalType": "string",
          "name": "position",
          "type": "string"
        }
      ],
      "name": "getEncryptedPositionStats",
      "outputs": [
        {
          "internalType": "euint32",
          "name": "encryptedTotal",
          "type": "bytes32"
        },
        {
          "internalType": "uint32",
          "name": "count",
          "type": "uint32"
        }
      ],
      "stateMutability": "view",
      "type": "function"
    },
    {
      "inputs": [
        {
          "internalType": "uint256",
          "name": "entryId",
          "type": "uint256"
        }
      ],
      "name": "getEncryptedSalary",
      "outputs": [
        {
          "internalType": "euint32",
          "name": "",
          "type": "bytes32"
        }
      ],
      "stateMutability": "view",
      "type": "function"
    },
    {
      "inputs": [],
      "name": "getEncryptedStats",
      "outputs": [
        {
          "internalType": "euint32",
          "name": "encryptedTotal",
          "type": "bytes32"
        },
        {
          "internalType": "uint32",
          "name": "activeCount",
          "type": "uint32"
        }
      ],
      "stateMutability": "view",
      "type": "function"
    },
    {
      "inputs": [
        {
          "internalType": "uint256",
          "name": "entryId",
          "type": "uint256"
        }
      ],
      "name": "getEntry",
      "outputs": [
        {
          "internalType": "string",
          "name": "position",
          "type": "string"
        },
        {
          "internalType": "uint256",
          "name": "timestamp",
          "type": "uint256"
        },
        {
          "internalType": "address",
          "name": "submitter",
          "type": "address"
        },
        {
          "internalType": "bool",
          "name": "isActive",
          "type": "bool"
        }
      ],
      "stateMutability": "view",
      "type": "function"
    },
    {
      "inputs": [],
      "name": "getEntryCount",
      "outputs": [
        {
          "internalType": "uint256",
          "name": "",
          "type": "uint256"
        }
      ],
      "stateMutability": "view",
      "type": "function"
    },
    {
      "inputs": [],
      "name": "getGlobalStats",
      "outputs": [
        {
          "internalType": "uint32",
          "name": "averageSalary",
          "type": "uint32"
        },
        {
          "internalType": "uint32",
          "name": "totalCount",
          "type": "uint32"
        }
      ],
      "stateMutability": "view",
      "type": "function"
    },
    {
      "inputs": [
        {
          "internalType": "string",
          "name": "position",
          "type": "string"
        }
      ],
      "name": "getPositionStats",
      "outputs": [
        {
          "internalType": "uint32",
          "name": "averageSalary",
          "type": "uint32"
        },
        {
          "internalType": "uint32",
          "name": "count",
          "type": "uint32"
        }
      ],
      "stateMutability": "view",
      "type": "function"
    },
    {
      "inputs": [
        {
          "internalType": "uint256",
          "name": "requestId",
          "type": "uint256"
        },
        {
          "internalType": "bytes",
          "name": "cleartexts",
          "type": "bytes"
        },
        {
          "internalType": "bytes[]",
          "name": "",
          "type": "bytes[]"
        }
      ],
      "name": "globalStatsCallback",
      "outputs": [
        {
          "internalType": "bool",
          "name": "",
          "type": "bool"
        }
      ],
      "stateMutability": "nonpayable",
      "type": "function"
    },
    {
      "inputs": [
        {
          "internalType": "address",
          "name": "",
          "type": "address"
        }
      ],
      "name": "hasSubmitted",
      "outputs": [
        {
          "internalType": "bool",
          "name": "",
          "type": "bool"
        }
      ],
      "stateMutability": "view",
      "type": "function"
    },
    {
      "inputs": [
        {
          "internalType": "string",
          "name": "position",
          "type": "string"
        }
      ],
      "name": "isPositionStatsFinalized",
      "outputs": [
        {
          "internalType": "bool",
          "name": "",
          "type": "bool"
        }
      ],
      "stateMutability": "view",
      "type": "function"
    },
    {
      "inputs": [],
      "name": "isStatsFinalized",
      "outputs": [
        {
          "internalType": "bool",
          "name": "",
          "type": "bool"
        }
      ],
      "stateMutability": "view",
      "type": "function"
    },
    {
      "inputs": [
        {
          "internalType": "uint256",
          "name": "requestId",
          "type": "uint256"
        },
        {
          "internalType": "bytes",
          "name": "cleartexts",
          "type": "bytes"
        },
        {
          "internalType": "bytes[]",
          "name": "",
          "type": "bytes[]"
        }
      ],
      "name": "positionStatsCallback",
      "outputs": [
        {
          "internalType": "bool",
          "name": "",
          "type": "bool"
        }
      ],
      "stateMutability": "nonpayable",
      "type": "function"
    },
    {
      "inputs": [],
      "name": "protocolId",
      "outputs": [
        {
          "internalType": "uint256",
          "name": "",
          "type": "uint256"
        }
      ],
      "stateMutability": "pure",
      "type": "function"
    },
    {
      "inputs": [],
      "name": "requestGlobalStats",
      "outputs": [],
      "stateMutability": "nonpayable",
      "type": "function"
    },
    {
      "inputs": [
        {
          "internalType": "string",
          "name": "position",
          "type": "string"
        }
      ],
      "name": "requestPositionStats",
      "outputs": [],
      "stateMutability": "nonpayable",
      "type": "function"
    },
    {
      "inputs": [
        {
          "internalType": "uint256",
          "name": "",
          "type": "uint256"
        }
      ],
      "name": "salaryEntries",
      "outputs": [
        {
          "internalType": "address",
          "name": "submitter",
          "type": "address"
        },
        {
          "internalType": "string",
          "name": "position",
          "type": "string"
        },
        {
          "internalType": "euint32",
          "name": "encryptedSalary",
          "type": "bytes32"
        },
        {
          "internalType": "uint256",
          "name": "timestamp",
          "type": "uint256"
        },
        {
          "internalType": "bool",
          "name": "isActive",
          "type": "bool"
        }
      ],
      "stateMutability": "view",
      "type": "function"
    },
    {
      "inputs": [
        {
          "internalType": "externalEuint32",
          "name": "encryptedSalary",
          "type": "bytes32"
        },
        {
          "internalType": "bytes",
          "name": "inputProof",
          "type": "bytes"
        },
        {
          "internalType": "string",
          "name": "position",
          "type": "string"
        }
      ],
      "name": "submitSalary",
      "outputs": [],
      "stateMutability": "nonpayable",
      "type": "function"
    },
    {
      "inputs": [
        {
          "internalType": "externalEuint32",
          "name": "encryptedSalary",
          "type": "bytes32"
        },
        {
          "internalType": "bytes",
          "name": "inputProof",
          "type": "bytes"
        },
        {
          "internalType": "string",
          "name": "newPosition",
          "type": "string"
        }
      ],
      "name": "updateSalary",
      "outputs": [],
      "stateMutability": "nonpayable",
      "type": "function"
    },
    {
      "inputs": [
        {
          "internalType": "address",
          "name": "",
          "type": "address"
        }
      ],
      "name": "userEntryId",
      "outputs": [
        {
          "internalType": "uint256",
          "name": "",
          "type": "uint256"
        }
      ],
      "stateMutability": "view",
      "type": "function"
    }
  ],
  "bytecode": "0x608060405234801561000f575f5ffd5b5061018a6100ae604080516080810182525f80825260208201819052918101829052606081019190915250604080516080810182527350157cffd6bbfa2dece204a89ec419c23ef5755d815273cd3ab3bd6bcc0c0bf3e27912a92043e817b1cf69602082015273a02cda4ca3a71d7c46997716f4283aa851c2881291810191909152731364cbbf2cdf5032c47d8226a6f6fbd2afcdacac606082015290565b80517f9e7b61f58c47dc699ac88507c4f5bb9f121c03808c5676a8078fe583e464970080546001600160a01b03199081166001600160a01b039384161790915560208301517f9e7b61f58c47dc699ac88507c4f5bb9f121c03808c5676a8078fe583e46497018054831691841691909117905560408301517f9e7b61f58c47dc699ac88507c4f5bb9f121c03808c5676a8078fe583e46497028054831691841691909117905560608301517f9e7b61f58c47dc699ac88507c4f5bb9f121c03808c5676a8078fe583e46497038054909216921691909117905550565b612649806101975f395ff3fe608060405234801561000f575f5ffd5b5060043610610179575f3560e01c80637a360e65116100d25780639fa66d2d11610088578063c11d3a3511610063578063c11d3a351461035e578063da1f12ab14610397578063f9a2010e1461039f575f5ffd5b80639fa66d2d14610309578063bae78d7b14610328578063bb350cd41461034b575f5ffd5b806385713192116100b857806385713192146102ba57806386099f70146102d25780639b457547146102e5575f5ffd5b80637a360e651461029f578063838e8c87146102a7575f5ffd5b80634da03f8e116101325780635ced0c531161010d5780635ced0c531461025d5780636b4169c3146102705780636eac12af14610278575f5ffd5b80634da03f8e146102215780635392250b1461024b57806356aa80cc14610255575f5ffd5b80632429be38116101625780632429be38146101bc5780632baaaa33146101cf578063388044b3146101ff575f5ffd5b80630cbb0f831461017d5780631ccc746514610199575b5f5ffd5b61018660015481565b6040519081526020015b60405180910390f35b6101ac6101a7366004612005565b6103b2565b6040519015158152602001610190565b6101866101ca366004612106565b610661565b6101e26101dd36600461211d565b6106c8565b6040805163ffffffff938416815292909116602083015201610190565b6101ac61020d36600461214f565b60026020525f908152604090205460ff1681565b6101ac61022f36600461211d565b80516020918201205f908152600b909152604090205460ff1690565b61025361075f565b005b610253610975565b61025361026b366004612175565b610ad7565b6101e2610e7e565b60045460055463ffffffff165b6040805192835263ffffffff909116602083015201610190565b600154610186565b6102536102b536600461211d565b610ef2565b60055460405163ffffffff9091168152602001610190565b6102536102e0366004612175565b611070565b6102f86102f3366004612106565b611420565b604051610190959493929190612245565b61018661031736600461214f565b60036020525f908152604090205481565b61033b610336366004612106565b6114e3565b6040516101909493929190612285565b6101ac610359366004612005565b6115b9565b61028561036c36600461211d565b80516020918201205f908152600682526040808220546007909352902054909163ffffffff90911690565b612711610186565b600854640100000000900460ff166101ac565b5f8381526009602052604081205460ff166104065760405162461bcd60e51b815260206004820152600f60248201526e125b9d985b1a59081c995c5d595cdd608a1b60448201526064015b60405180910390fd5b600854640100000000900460ff16156104615760405162461bcd60e51b815260206004820152601160248201527f416c72656164792066696e616c697a656400000000000000000000000000000060448201526064016103fd565b60055463ffffffff166104b65760405162461bcd60e51b815260206004820152601160248201527f4e6f2061637469766520656e747269657300000000000000000000000000000060448201526064016103fd565b5f6004845110156105095760405162461bcd60e51b815260206004820152601860248201527f496e76616c696420636c65617274657874206c656e677468000000000000000060448201526064016103fd565b50602083015160e01c8061055f5760405162461bcd60e51b815260206004820152601460248201527f496e76616c696420746f74616c2073616c61727900000000000000000000000060448201526064016103fd565b60055463ffffffff90610574908216836122d2565b63ffffffff16106105ba5760405162461bcd60e51b815260206004820152601060248201526f41766572616765206f766572666c6f7760801b60448201526064016103fd565b6005546105cd9063ffffffff16826122d2565b6008805464ffffffffff191663ffffffff928316176401000000001781555f8781526009602052604090819020805460ff19169055905460055491517ffe18a001f951223862e574103b9a77ca1edd834be1a97b203dec7486412026b69361064c9392811692169063ffffffff92831681529116602082015260400190565b60405180910390a160019150505b9392505050565b5f60015482106106b35760405162461bcd60e51b815260206004820152601460248201527f456e74727920646f6573206e6f7420657869737400000000000000000000000060448201526064016103fd565b505f9081526020819052604090206002015490565b80516020808301919091205f818152600b909252604082205482919060ff166107335760405162461bcd60e51b815260206004820181905260248201527f506f736974696f6e207374617473206e6f7420617661696c61626c652079657460448201526064016103fd565b5f908152600a602090815260408083205460079092529091205463ffffffff9182169591169350915050565b335f9081526002602052604090205460ff166107bd5760405162461bcd60e51b815260206004820152601260248201527f4e6f20656e74727920746f2064656c657465000000000000000000000000000060448201526064016103fd565b335f9081526003602090815260408083205480845291839052909120600481015460ff1661082d5760405162461bcd60e51b815260206004820152601560248201527f456e74727920616c72656164792064656c65746564000000000000000000000060448201526064016103fd565b61083d6004548260020154611875565b6004556005805463ffffffff16905f61085583612305565b91906101000a81548163ffffffff021916908363ffffffff160217905550505f81600101604051610886919061235b565b604051809103902090506108af60065f8381526020019081526020015f20548360020154611875565b5f8281526006602090815260408083209390935560079052908120805463ffffffff16916108dc83612305565b825463ffffffff9182166101009390930a9283029190920219909116179055506004808301805460ff19908116909155335f908152600260205260409020805490911690555461092b906118a3565b505f81815260066020526040902054610943906118a3565b50604051339084907fd37dc1bd3ec600a953321370bd5a541e800ea14b12c329f50bfe66ffff35a912905f90a3505050565b60055463ffffffff166109ca5760405162461bcd60e51b815260206004820152601260248201527f4e6f206461746120746f2064656372797074000000000000000000000000000060448201526064016103fd565b600854640100000000900460ff1615610a255760405162461bcd60e51b815260206004820152601760248201527f537461747320616c72656164792066696e616c697a656400000000000000000060448201526064016103fd565b6040805160018082528183019092525f9160208083019080368337019050509050610a4f60045490565b815f81518110610a6157610a616123cc565b60209081029190910101525f610a7e82631ccc746560e01b6118b2565b5f8181526009602052604090819020805460ff19166001179055519091507fe8f5a6e600382432167f9ca81ef2c4f977abe2ca909053801ff47da02e0a1ab490610acb9083815260200190565b60405180910390a15050565b335f9081526002602052604090205460ff16610b355760405162461bcd60e51b815260206004820152601260248201527f4e6f20656e74727920746f20757064617465000000000000000000000000000060448201526064016103fd565b5f815111610b855760405162461bcd60e51b815260206004820152601860248201527f506f736974696f6e2063616e6e6f7420626520656d707479000000000000000060448201526064016103fd565b606481511115610bd75760405162461bcd60e51b815260206004820152601160248201527f506f736974696f6e20746f6f206c6f6e6700000000000000000000000000000060448201526064016103fd565b335f9081526003602090815260408083205480845291839052909120600481015460ff16610c475760405162461bcd60e51b815260206004820152601060248201527f456e747279206e6f74206163746976650000000000000000000000000000000060448201526064016103fd565b5f610c878787878080601f0160208091040260200160405190810160405280939291908181526020018383808284375f920191909152506118be92505050565b9050610c996004548360020154611875565b6004556040515f90610caf90600185019061235b565b60405180910390209050610cd860065f8381526020019081526020015f20548460020154611875565b5f8281526006602090815260408083209390935560079052908120805463ffffffff1691610d0583612305565b91906101000a81548163ffffffff021916908363ffffffff1602179055505081836002018190555084836001019081610d3e919061242c565b50426003840155600454610d5290836118cb565b60045584516020808701919091205f81815260079092526040822054909163ffffffff9091169003610d93575f818152600660205260409020839055610dba565b5f81815260066020526040902054610dab90846118cb565b5f828152600660205260409020555b5f818152600760205260408120805463ffffffff1691610dd9836124e7565b91906101000a81548163ffffffff021916908363ffffffff16021790555050610e01836118a3565b50610e0c83336118f9565b50610e186004546118a3565b505f81815260066020526040902054610e30906118a3565b50336001600160a01b0316857f61cb8a1071703dc7be8a9db06f9ad603ae1eb1ac1839e031f423051fcc43d12988604051610e6b919061250b565b60405180910390a3505050505050505050565b6008545f908190640100000000900460ff16610edc5760405162461bcd60e51b815260206004820152601760248201527f5374617473206e6f7420617661696c61626c652079657400000000000000000060448201526064016103fd565b505060085460055463ffffffff91821692911690565b80516020808301919091205f818152600790925260409091205463ffffffff16610f5e5760405162461bcd60e51b815260206004820152601960248201527f4e6f206461746120666f72207468697320706f736974696f6e0000000000000060448201526064016103fd565b5f818152600b602052604090205460ff1615610fbc5760405162461bcd60e51b815260206004820181905260248201527f506f736974696f6e20737461747320616c72656164792066696e616c697a656460448201526064016103fd565b6040805160018082528183019092525f9160208083019080368337019050505f83815260066020526040902054909150815f81518110610ffe57610ffe6123cc565b60209081029190910101525f61101b82632ecd433560e21b6118b2565b5f818152600c6020526040908190208590555190915083907fd96f96b2577621e47b1a02b426bffcc4ebd4151824b8c0cff47c1140461659bd906110629084815260200190565b60405180910390a250505050565b335f9081526002602052604090205460ff16156110cf5760405162461bcd60e51b815260206004820152601160248201527f416c7265616479207375626d697474656400000000000000000000000000000060448201526064016103fd565b5f81511161111f5760405162461bcd60e51b815260206004820152601860248201527f506f736974696f6e2063616e6e6f7420626520656d707479000000000000000060448201526064016103fd565b6064815111156111715760405162461bcd60e51b815260206004820152601160248201527f506f736974696f6e20746f6f206c6f6e6700000000000000000000000000000060448201526064016103fd565b5f6111b18585858080601f0160208091040260200160405190810160405280939291908181526020018383808284375f920191909152506118be92505050565b600180549192505f9190826111c58361251d565b909155506040805160a08101825233815260208082018781528284018790524260608401526001608084018190525f8681529283905293909120825181547fffffffffffffffffffffffff0000000000000000000000000000000000000000166001600160a01b03909116178155905193945090929091820190611249908261242c565b5060408281015160028084019190915560608401516003808501919091556080909401516004909301805493151560ff19948516179055335f908152602091825282812080549094166001179093559290925290812082905560055463ffffffff1690036112bb5760048290556112cb565b6112c7600454836118cb565b6004555b6005805463ffffffff16905f6112e0836124e7565b82546101009290920a63ffffffff81810219909316918316021790915584516020808701919091205f818152600790925260408220549093509091169003611337575f81815260066020526040902083905561135e565b5f8181526006602052604090205461134f90846118cb565b5f828152600660205260409020555b5f818152600760205260408120805463ffffffff169161137d836124e7565b91906101000a81548163ffffffff021916908363ffffffff160217905550506113a5836118a3565b506113b083336118f9565b506113bc6004546118a3565b505f818152600660205260409020546113d4906118a3565b50336001600160a01b0316827f8914dd184bdd14a2bb6a1ff439ce790be87b045be0a8ce85b17ba1156f066f348660405161140f919061250b565b60405180910390a350505050505050565b5f60208190529081526040902080546001820180546001600160a01b03909216929161144b90612323565b80601f016020809104026020016040519081016040528092919081815260200182805461147790612323565b80156114c25780601f10611499576101008083540402835291602001916114c2565b820191905f5260205f20905b8154815290600101906020018083116114a557829003601f168201915b50505050600283015460038401546004909401549293909290915060ff1685565b5f8181526020819052604081206003810154815460048301546001840180546060969586958695919490926001600160a01b039092169160ff90911690849061152b90612323565b80601f016020809104026020016040519081016040528092919081815260200182805461155790612323565b80156115a25780601f10611579576101008083540402835291602001916115a2565b820191905f5260205f20905b81548152906001019060200180831161158557829003601f168201915b505050505093509450945094509450509193509193565b5f838152600c6020526040812054806116065760405162461bcd60e51b815260206004820152600f60248201526e125b9d985b1a59081c995c5d595cdd608a1b60448201526064016103fd565b5f818152600b602052604090205460ff16156116645760405162461bcd60e51b815260206004820152601160248201527f416c72656164792066696e616c697a656400000000000000000000000000000060448201526064016103fd565b5f8181526007602052604090205463ffffffff166116c45760405162461bcd60e51b815260206004820152600760248201527f4e6f20646174610000000000000000000000000000000000000000000000000060448201526064016103fd565b5f6004855110156117175760405162461bcd60e51b815260206004820152601860248201527f496e76616c696420636c65617274657874206c656e677468000000000000000060448201526064016103fd565b50602084015160e01c8061176d5760405162461bcd60e51b815260206004820152601460248201527f496e76616c696420746f74616c2073616c61727900000000000000000000000060448201526064016103fd565b5f8281526007602052604090205463ffffffff9081169061178e82846122d2565b63ffffffff16106117d45760405162461bcd60e51b815260206004820152601060248201526f41766572616765206f766572666c6f7760801b60448201526064016103fd565b6117de81836122d2565b5f848152600a60208181526040808420805463ffffffff191663ffffffff968716178155600b8352818520805460ff191660011790558c8552600c8352818520859055938890529181529154815190841681529284169183019190915284917f2319b6c6daf265ef693c90eec30e6e9c40ef4cb85d8a8e7cac34671b37c03df5910160405180910390a25060019695505050505050565b5f82611887576118845f61190b565b92505b81611898576118955f61190b565b91505b61065a83835f611923565b5f6118ae8230611a1e565b5090565b5f61065a83835f611aa7565b5f61065a83836004611bd5565b5f826118dd576118da5f61190b565b92505b816118ee576118eb5f61190b565b91505b61065a83835f611cf5565b5f6119048383611a1e565b5090919050565b5f61191d8263ffffffff166004611daa565b92915050565b5f5f82156119365750600160f81b611939565b505f5b7f9e7b61f58c47dc699ac88507c4f5bb9f121c03808c5676a8078fe583e4649701546040516303056db360e31b815260048101879052602481018690527fff00000000000000000000000000000000000000000000000000000000000000831660448201527f9e7b61f58c47dc699ac88507c4f5bb9f121c03808c5676a8078fe583e4649700916001600160a01b03169063182b6d98906064015b6020604051808303815f875af11580156119f0573d5f5f3e3d5ffd5b505050506040513d601f19601f82011682018060405250810190611a149190612535565b9695505050505050565b5f7f9e7b61f58c47dc699ac88507c4f5bb9f121c03808c5676a8078fe583e46497008054604051635ca4b5b160e11b8152600481018690526001600160a01b03858116602483015292935091169063b9496b62906044015f604051808303815f87803b158015611a8c575f5ffd5b505af1158015611a9e573d5f5f3e3d5ffd5b50505050505050565b7f878245876662ba28a480c5ea71726db859fb50222b0a3d7cbbc21cfa336faf0080547f9e7b61f58c47dc699ac88507c4f5bb9f121c03808c5676a8078fe583e46497008054604051637d6e912360e11b81529293926001600160a01b039091169063fadd224690611b1d908990600401612586565b5f604051808303815f87803b158015611b34575f5ffd5b505af1158015611b46573d5f5f3e3d5ffd5b5050506002820154604051633263b83b60e01b81526001600160a01b039091169150633263b83b908690611b829087908b908b90600401612598565b5f604051808303818588803b158015611b99575f5ffd5b505af1158015611bab573d5f5f3e3d5ffd5b5050505050611bba8387611e67565b8154825f611bc78361251d565b919050555050509392505050565b7f9e7b61f58c47dc699ac88507c4f5bb9f121c03808c5676a8078fe583e46497015460405163196d0b9b60e01b81525f917f9e7b61f58c47dc699ac88507c4f5bb9f121c03808c5676a8078fe583e4649700916001600160a01b039091169063196d0b9b90611c4e9088903390899089906004016125e9565b6020604051808303815f875af1158015611c6a573d5f5f3e3d5ffd5b505050506040513d601f19601f82011682018060405250810190611c8e9190612535565b8154604051630f8e573b60e21b8152600481018390523360248201529193506001600160a01b031690633e395cec906044015f604051808303815f87803b158015611cd7575f5ffd5b505af1158015611ce9573d5f5f3e3d5ffd5b50505050509392505050565b5f5f8215611d085750600160f81b611d0b565b505f5b7f9e7b61f58c47dc699ac88507c4f5bb9f121c03808c5676a8078fe583e46497015460405163022f65e760e31b815260048101879052602481018690527fff00000000000000000000000000000000000000000000000000000000000000831660448201527f9e7b61f58c47dc699ac88507c4f5bb9f121c03808c5676a8078fe583e4649700916001600160a01b03169063117b2f38906064016119d4565b7f9e7b61f58c47dc699ac88507c4f5bb9f121c03808c5676a8078fe583e464970154604051639cd07acb60e01b81525f917f9e7b61f58c47dc699ac88507c4f5bb9f121c03808c5676a8078fe583e4649700916001600160a01b0390911690639cd07acb90611e1f9087908790600401612628565b6020604051808303815f875af1158015611e3b573d5f5f3e3d5ffd5b505050506040513d601f19601f82011682018060405250810190611e5f9190612535565b949350505050565b5f8281527f878245876662ba28a480c5ea71726db859fb50222b0a3d7cbbc21cfa336faf0160205260409020547f878245876662ba28a480c5ea71726db859fb50222b0a3d7cbbc21cfa336faf009015611ed457604051633f06d22b60e01b815260040160405180910390fd5b5f83815260018201602090815260409091208351611ef492850190611efa565b50505050565b828054828255905f5260205f20908101928215611f33579160200282015b82811115611f33578251825591602001919060010190611f18565b506118ae9291505b808211156118ae575f8155600101611f3b565b634e487b7160e01b5f52604160045260245ffd5b604051601f8201601f1916810167ffffffffffffffff81118282101715611f8b57611f8b611f4e565b604052919050565b5f82601f830112611fa2575f5ffd5b8135602083015f5f67ffffffffffffffff841115611fc257611fc2611f4e565b50601f8301601f1916602001611fd781611f62565b915050828152858383011115611feb575f5ffd5b828260208301375f92810160200192909252509392505050565b5f5f5f60608486031215612017575f5ffd5b83359250602084013567ffffffffffffffff811115612034575f5ffd5b61204086828701611f93565b925050604084013567ffffffffffffffff81111561205c575f5ffd5b8401601f8101861361206c575f5ffd5b803567ffffffffffffffff81111561208657612086611f4e565b8060051b61209660208201611f62565b918252602081840181019290810190898411156120b1575f5ffd5b6020850192505b838310156120f757823567ffffffffffffffff8111156120d6575f5ffd5b6120e58b602083890101611f93565b835250602092830192909101906120b8565b80955050505050509250925092565b5f60208284031215612116575f5ffd5b5035919050565b5f6020828403121561212d575f5ffd5b813567ffffffffffffffff811115612143575f5ffd5b611e5f84828501611f93565b5f6020828403121561215f575f5ffd5b81356001600160a01b038116811461065a575f5ffd5b5f5f5f5f60608587031215612188575f5ffd5b84359350602085013567ffffffffffffffff8111156121a5575f5ffd5b8501601f810187136121b5575f5ffd5b803567ffffffffffffffff8111156121cb575f5ffd5b8760208284010111156121dc575f5ffd5b60209190910193509150604085013567ffffffffffffffff8111156121ff575f5ffd5b61220b87828801611f93565b91505092959194509250565b5f81518084528060208401602086015e5f602082860101526020601f19601f83011685010191505092915050565b6001600160a01b038616815260a060208201525f61226660a0830187612217565b6040830195909552506060810192909252151560809091015292915050565b608081525f6122976080830187612217565b6020830195909552506001600160a01b039290921660408301521515606090910152919050565b634e487b7160e01b5f52601160045260245ffd5b5f63ffffffff8316806122f357634e487b7160e01b5f52601260045260245ffd5b8063ffffffff84160491505092915050565b5f63ffffffff82168061231a5761231a6122be565b5f190192915050565b600181811c9082168061233757607f821691505b60208210810361235557634e487b7160e01b5f52602260045260245ffd5b50919050565b5f5f835461236881612323565b60018216801561237f5760018114612394576123c1565b60ff19831686528115158202860193506123c1565b865f5260205f205f5b838110156123b95781548882015260019091019060200161239d565b505081860193505b509195945050505050565b634e487b7160e01b5f52603260045260245ffd5b601f82111561242757805f5260205f20601f840160051c810160208510156124055750805b601f840160051c820191505b81811015612424575f8155600101612411565b50505b505050565b815167ffffffffffffffff81111561244657612446611f4e565b61245a816124548454612323565b846123e0565b6020601f82116001811461248c575f83156124755750848201515b5f19600385901b1c1916600184901b178455612424565b5f84815260208120601f198516915b828110156124bb578785015182556020948501946001909201910161249b565b50848210156124d857868401515f19600387901b60f8161c191681555b50505050600190811b01905550565b5f63ffffffff821663ffffffff8103612502576125026122be565b60010192915050565b602081525f61065a6020830184612217565b5f6001820161252e5761252e6122be565b5060010190565b5f60208284031215612545575f5ffd5b5051919050565b5f8151808452602084019350602083015f5b8281101561257c57815186526020958601959091019060010161255e565b5093949350505050565b602081525f61065a602083018461254c565b838152606060208201525f6125b0606083018561254c565b905063ffffffff60e01b83166040830152949350505050565b605481106125e557634e487b7160e01b5f52602160045260245ffd5b9052565b8481526001600160a01b0384166020820152608060408201525f6126106080830185612217565b905061261f60608301846125c9565b95945050505050565b8281526040810161065a60208301846125c956fea164736f6c634300081b000a",
  "linkReferences": {},
  "deployedLinkReferences": {}
}