{
  "address": "0xe7f1725E7734CE288F8367e1Bb143E90bb3F0512",
  "abi": [
    {
      "inputs": [],
      "name": "HandlesAlreadySavedForRequestID",
      "type": "error"
    },
    {
      "anonymous": false,
      "inputs": [
        {
          "indexed": true,
          "internalType": "address",
          "name": "owner",
          "type": "address"
        },
        {
          "indexed": true,
          "internalType": "uint256",
          "name": "timestamp",
          "type": "uint256"
        }
      ],
      "name": "ProfileCreated",
      "type": "event"
    },
    {
      "anonymous": false,
      "inputs": [
        {
          "indexed": true,
          "internalType": "address",
          "name": "owner",
          "type": "address"
        }
      ],
      "name": "ProfileDeleted",
      "type": "event"
    },
    {
      "anonymous": false,
      "inputs": [
        {
          "indexed": true,
          "internalType": "address",
          "name": "owner",
          "type": "address"
        },
        {
          "indexed": true,
          "internalType": "uint256",
          "name": "timestamp",
          "type": "uint256"
        }
      ],
      "name": "ProfileUpdated",
      "type": "event"
    },
    {
      "anonymous": false,
      "inputs": [
        {
          "indexed": true,
          "internalType": "address",
          "name": "owner",
          "type": "address"
        },
        {
          "indexed": true,
          "internalType": "uint256",
          "name": "timestamp",
          "type": "uint256"
        }
      ],
      "name": "ScoreCalculated",
      "type": "event"
    },
    {
      "anonymous": false,
      "inputs": [
        {
          "indexed": true,
          "internalType": "address",
          "name": "owner",
          "type": "address"
        },
        {
          "indexed": true,
          "internalType": "uint256",
          "name": "requestId",
          "type": "uint256"
        }
      ],
      "name": "ScoreDecryptionRequested",
      "type": "event"
    },
    {
      "anonymous": false,
      "inputs": [
        {
          "indexed": true,
          "internalType": "address",
          "name": "owner",
          "type": "address"
        },
        {
          "indexed": false,
          "internalType": "uint32",
          "name": "score",
          "type": "uint32"
        }
      ],
      "name": "ScoreRevealed",
      "type": "event"
    },
    {
      "inputs": [],
      "name": "activeProfileCount",
      "outputs": [
        {
          "internalType": "uint256",
          "name": "",
          "type": "uint256"
        }
      ],
      "stateMutability": "view",
      "type": "function"
    },
    {
      "inputs": [],
      "name": "calculateScore",
      "outputs": [],
      "stateMutability": "nonpayable",
      "type": "function"
    },
    {
      "inputs": [
        {
          "internalType": "externalEuint32",
          "name": "encryptedIncome",
          "type": "bytes32"
        },
        {
          "internalType": "bytes",
          "name": "incomeProof",
          "type": "bytes"
        },
        {
          "internalType": "externalEuint32",
          "name": "encryptedRepaymentRate",
          "type": "bytes32"
        },
        {
          "internalType": "bytes",
          "name": "repaymentProof",
          "type": "bytes"
        },
        {
          "internalType": "externalEuint32",
          "name": "encryptedDebtRatio",
          "type": "bytes32"
        },
        {
          "internalType": "bytes",
          "name": "debtProof",
          "type": "bytes"
        },
        {
          "internalType": "externalEuint32",
          "name": "encryptedCreditHistory",
          "type": "bytes32"
        },
        {
          "internalType": "bytes",
          "name": "historyProof",
          "type": "bytes"
        }
      ],
      "name": "createProfile",
      "outputs": [],
      "stateMutability": "nonpayable",
      "type": "function"
    },
    {
      "inputs": [
        {
          "internalType": "address",
          "name": "",
          "type": "address"
        }
      ],
      "name": "creditProfiles",
      "outputs": [
        {
          "internalType": "euint32",
          "name": "encryptedIncome",
          "type": "bytes32"
        },
        {
          "internalType": "euint32",
          "name": "encryptedRepaymentRate",
          "type": "bytes32"
        },
        {
          "internalType": "euint32",
          "name": "encryptedDebtRatio",
          "type": "bytes32"
        },
        {
          "internalType": "euint32",
          "name": "encryptedCreditHistory",
          "type": "bytes32"
        },
        {
          "internalType": "euint32",
          "name": "encryptedScore",
          "type": "bytes32"
        },
        {
          "internalType": "uint256",
          "name": "timestamp",
          "type": "uint256"
        },
        {
          "internalType": "address",
          "name": "owner",
          "type": "address"
        },
        {
          "internalType": "bool",
          "name": "isActive",
          "type": "bool"
        },
        {
          "internalType": "bool",
          "name": "scoreCalculated",
          "type": "bool"
        }
      ],
      "stateMutability": "view",
      "type": "function"
    },
    {
      "inputs": [],
      "name": "deleteProfile",
      "outputs": [],
      "stateMutability": "nonpayable",
      "type": "function"
    },
    {
      "inputs": [],
      "name": "getActiveProfileCount",
      "outputs": [
        {
          "internalType": "uint256",
          "name": "",
          "type": "uint256"
        }
      ],
      "stateMutability": "view",
      "type": "function"
    },
    {
      "inputs": [
        {
          "internalType": "address",
          "name": "user",
          "type": "address"
        }
      ],
      "name": "getDecryptedScore",
      "outputs": [
        {
          "internalType": "uint32",
          "name": "score",
          "type": "uint32"
        }
      ],
      "stateMutability": "view",
      "type": "function"
    },
    {
      "inputs": [
        {
          "internalType": "address",
          "name": "user",
          "type": "address"
        }
      ],
      "name": "getEncryptedScore",
      "outputs": [
        {
          "internalType": "euint32",
          "name": "",
          "type": "bytes32"
        }
      ],
      "stateMutability": "view",
      "type": "function"
    },
    {
      "inputs": [
        {
          "internalType": "address",
          "name": "user",
          "type": "address"
        }
      ],
      "name": "getProfile",
      "outputs": [
        {
          "internalType": "uint256",
          "name": "timestamp",
          "type": "uint256"
        },
        {
          "internalType": "bool",
          "name": "isActive",
          "type": "bool"
        },
        {
          "internalType": "bool",
          "name": "scoreCalculated",
          "type": "bool"
        }
      ],
      "stateMutability": "view",
      "type": "function"
    },
    {
      "inputs": [],
      "name": "getScoreWeights",
      "outputs": [
        {
          "internalType": "uint32",
          "name": "incomeWeight",
          "type": "uint32"
        },
        {
          "internalType": "uint32",
          "name": "repaymentWeight",
          "type": "uint32"
        },
        {
          "internalType": "uint32",
          "name": "debtWeight",
          "type": "uint32"
        },
        {
          "internalType": "uint32",
          "name": "historyWeight",
          "type": "uint32"
        }
      ],
      "stateMutability": "pure",
      "type": "function"
    },
    {
      "inputs": [
        {
          "internalType": "address",
          "name": "user",
          "type": "address"
        }
      ],
      "name": "hasProfile",
      "outputs": [
        {
          "internalType": "bool",
          "name": "",
          "type": "bool"
        }
      ],
      "stateMutability": "view",
      "type": "function"
    },
    {
      "inputs": [
        {
          "internalType": "address",
          "name": "user",
          "type": "address"
        }
      ],
      "name": "isScoreFinalized",
      "outputs": [
        {
          "internalType": "bool",
          "name": "",
          "type": "bool"
        }
      ],
      "stateMutability": "view",
      "type": "function"
    },
    {
      "inputs": [],
      "name": "protocolId",
      "outputs": [
        {
          "internalType": "uint256",
          "name": "",
          "type": "uint256"
        }
      ],
      "stateMutability": "pure",
      "type": "function"
    },
    {
      "inputs": [],
      "name": "requestScoreDecryption",
      "outputs": [],
      "stateMutability": "nonpayable",
      "type": "function"
    },
    {
      "inputs": [
        {
          "internalType": "uint256",
          "name": "requestId",
          "type": "uint256"
        },
        {
          "internalType": "bytes",
          "name": "cleartexts",
          "type": "bytes"
        },
        {
          "internalType": "bytes[]",
          "name": "",
          "type": "bytes[]"
        }
      ],
      "name": "scoreDecryptionCallback",
      "outputs": [
        {
          "internalType": "bool",
          "name": "",
          "type": "bool"
        }
      ],
      "stateMutability": "nonpayable",
      "type": "function"
    },
    {
      "inputs": [
        {
          "internalType": "externalEuint32",
          "name": "encryptedIncome",
          "type": "bytes32"
        },
        {
          "internalType": "bytes",
          "name": "incomeProof",
          "type": "bytes"
        },
        {
          "internalType": "externalEuint32",
          "name": "encryptedRepaymentRate",
          "type": "bytes32"
        },
        {
          "internalType": "bytes",
          "name": "repaymentProof",
          "type": "bytes"
        },
        {
          "internalType": "externalEuint32",
          "name": "encryptedDebtRatio",
          "type": "bytes32"
        },
        {
          "internalType": "bytes",
          "name": "debtProof",
          "type": "bytes"
        },
        {
          "internalType": "externalEuint32",
          "name": "encryptedCreditHistory",
          "type": "bytes32"
        },
        {
          "internalType": "bytes",
          "name": "historyProof",
          "type": "bytes"
        }
      ],
      "name": "updateProfile",
      "outputs": [],
      "stateMutability": "nonpayable",
      "type": "function"
    }
  ],
  "transactionHash": "0x7bfb0e6c8904dc454284e66a426331b0117cefd4cfa81fbbf08fc7ec2ed65a0c",
  "args": [],
  "numDeployments": 1,
  "solcInputHash": "cc7b74994ab30ad61dbfb83655cf83e6",
  "bytecode": "0x608060405234801561000f575f5ffd5b5061018a6100ae604080516080810182525f80825260208201819052918101829052606081019190915250604080516080810182527350157cffd6bbfa2dece204a89ec419c23ef5755d815273cd3ab3bd6bcc0c0bf3e27912a92043e817b1cf69602082015273a02cda4ca3a71d7c46997716f4283aa851c2881291810191909152731364cbbf2cdf5032c47d8226a6f6fbd2afcdacac606082015290565b80517f9e7b61f58c47dc699ac88507c4f5bb9f121c03808c5676a8078fe583e464970080546001600160a01b03199081166001600160a01b039384161790915560208301517f9e7b61f58c47dc699ac88507c4f5bb9f121c03808c5676a8078fe583e46497018054831691841691909117905560408301517f9e7b61f58c47dc699ac88507c4f5bb9f121c03808c5676a8078fe583e46497028054831691841691909117905560608301517f9e7b61f58c47dc699ac88507c4f5bb9f121c03808c5676a8078fe583e46497038054909216921691909117905550565b611fd6806101975f395ff3fe608060405234801561000f575f5ffd5b50600436106100fb575f3560e01c806370c7bf7211610093578063a787c80b11610063578063a787c80b146102fa578063b8ae6c3a1461032f578063da1f12ab14610337578063dbd4d7d81461033f575f5ffd5b806370c7bf72146102905780637701f5371461029957806380834592146102ac5780638381db37146102d2575f5ffd5b8063304e05bb116100ce578063304e05bb146101a357806345171f26146101ab5780635e0c56e0146102655780636d4540eb14610288575f5ffd5b80630f53a470146100ff578063105c2a0e1461016957806321d48a131461017e57806324a573ca14610190575b5f5ffd5b61014761010d366004611b42565b6001600160a01b03165f9081526020819052604090206005810154600690910154909160ff600160a01b8304811692600160a81b90041690565b6040805193845291151560208401521515908201526060015b60405180910390f35b61017c610177366004611bad565b61036a565b005b6001545b604051908152602001610160565b61018261019e366004611b42565b6105b6565b61017c61068d565b6102146101b9366004611b42565b5f60208190529081526040902080546001820154600283015460038401546004850154600586015460069096015494959394929391929091906001600160a01b0381169060ff600160a01b8204811691600160a81b90041689565b60408051998a5260208a0198909852968801959095526060870193909352608086019190915260a08501526001600160a01b031660c0840152151560e0830152151561010082015261012001610160565b610278610273366004611d5a565b61081b565b6040519015158152602001610160565b61017c610a3a565b61018260015481565b61017c6102a7366004611bad565b610b05565b6040805160198082526023602083015291810191909152600f6060820152608001610160565b6102e56102e0366004611b42565b610db7565b60405163ffffffff9091168152602001610160565b610278610308366004611b42565b6001600160a01b03165f90815260208190526040902060060154600160a01b900460ff1690565b61017c610ebd565b612711610182565b61027861034d366004611b42565b6001600160a01b03165f9081526004602052604090205460ff1690565b335f9081526020819052604090206006810154600160a01b900460ff166103d85760405162461bcd60e51b815260206004820152601760248201527f4e6f206163746976652070726f66696c6520666f756e6400000000000000000060448201526064015b60405180910390fd5b5f6104188e8e8e8080601f0160208091040260200160405190810160405280939291908181526020018383808284375f920191909152506110ba92505050565b90505f61045a8c8c8c8080601f0160208091040260200160405190810160405280939291908181526020018383808284375f920191909152506110ba92505050565b90505f61049c8a8a8a8080601f0160208091040260200160405190810160405280939291908181526020018383808284375f920191909152506110ba92505050565b90505f6104de8888888080601f0160208091040260200160405190810160405280939291908181526020018383808284375f920191909152506110ba92505050565b84865560018601849055600286018390556003860181905542600587015560068601805460ff60a81b19169055335f908152600460205260409020805460ff19169055905061052c846110c7565b5061053784336110d6565b50610541836110c7565b5061054c83336110d6565b50610556826110c7565b5061056182336110d6565b5061056b816110c7565b5061057681336110d6565b50604051429033907f03754aecf8745159503d95ad9d4b5e5ec503371279ddc036d4ac93cd953f9de2905f90a35050505050505050505050505050505050565b6001600160a01b0381165f9081526020819052604081206006810154600160a01b900460ff166106285760405162461bcd60e51b815260206004820152601160248201527f4e6f206163746976652070726f66696c6500000000000000000000000000000060448201526064016103cf565b6006810154600160a81b900460ff166106835760405162461bcd60e51b815260206004820152601460248201527f53636f7265206e6f742063616c63756c6174656400000000000000000000000060448201526064016103cf565b6004015492915050565b335f9081526020819052604090206006810154600160a01b900460ff166106f65760405162461bcd60e51b815260206004820152601760248201527f4e6f206163746976652070726f66696c6520666f756e6400000000000000000060448201526064016103cf565b6006810154600160a81b900460ff16156107525760405162461bcd60e51b815260206004820152601860248201527f53636f726520616c72656164792063616c63756c61746564000000000000000060448201526064016103cf565b5f61075f825f01546110e8565b90505f61076f83600101546111cd565b90505f61077f8460020154611280565b90505f61078f8560030154611331565b90505f61079c85856113e2565b90506107a881846113e2565b90506107b481836113e2565b6004870181905560068701805460ff60a81b1916600160a81b17905590506107db816110c7565b506107e681336110d6565b50604051429033907f4f63780d585edbea86c409e7eb541e3ec6e7c3a648e7a393f61025c1b21cc788905f90a3505050505050565b5f838152600260205260408120546001600160a01b03168061087f5760405162461bcd60e51b815260206004820152600f60248201527f496e76616c69642072657175657374000000000000000000000000000000000060448201526064016103cf565b6001600160a01b0381165f9081526004602052604090205460ff16156108e75760405162461bcd60e51b815260206004820152601160248201527f416c72656164792066696e616c697a656400000000000000000000000000000060448201526064016103cf565b5f60048551101561093a5760405162461bcd60e51b815260206004820152601860248201527f496e76616c696420636c65617274657874206c656e677468000000000000000060448201526064016103cf565b50602084015160e01c6103e88111156109955760405162461bcd60e51b815260206004820152601560248201527f53636f72652065786365656473206d6178696d756d000000000000000000000060448201526064016103cf565b6001600160a01b0382165f818152600360209081526040808320805463ffffffff191663ffffffff871690811790915560048352818420805460ff191660011790558a84526002835292819020805473ffffffffffffffffffffffffffffffffffffffff19169055519182527f3f4889df97894a50b4f325359b52c04c0ffd06ba16a35261b9eb9395b66b569d910160405180910390a26001925050505b9392505050565b335f9081526020819052604090206006810154600160a01b900460ff16610aa35760405162461bcd60e51b815260206004820152601760248201527f4e6f206163746976652070726f66696c6520666f756e6400000000000000000060448201526064016103cf565b60068101805460ff60a01b1916905560018054905f610ac183611e6f565b9091555050335f81815260046020526040808220805460ff19169055517f517b492f6c7db035d7c3c4fa1ce0cb2d05e1f24219256f50fbab78242e544c049190a250565b335f90815260208190526040902060060154600160a01b900460ff1615610b945760405162461bcd60e51b815260206004820152603160248201527f50726f66696c6520616c7265616479206578697374732e20557365207570646160448201527f746550726f66696c6520696e737465616400000000000000000000000000000060648201526084016103cf565b5f610bd48d8d8d8080601f0160208091040260200160405190810160405280939291908181526020018383808284375f920191909152506110ba92505050565b90505f610c168b8b8b8080601f0160208091040260200160405190810160405280939291908181526020018383808284375f920191909152506110ba92505050565b90505f610c588989898080601f0160208091040260200160405190810160405280939291908181526020018383808284375f920191909152506110ba92505050565b90505f610c9a8787878080601f0160208091040260200160405190810160405280939291908181526020018383808284375f920191909152506110ba92505050565b335f81815260208190526040902086815560018101869055600281018590556003810183905542600582015560068101805460ff60a81b1960ff60a01b199094167fffffffffffffffffffffff00000000000000000000000000000000000000000090911617600160a01b1792909216909155909150610d19856110c7565b50610d2485336110d6565b50610d2e846110c7565b50610d3984336110d6565b50610d43836110c7565b50610d4e83336110d6565b50610d58826110c7565b50610d6382336110d6565b5060018054905f610d7383611e84565b9091555050604051429033907fcb939889322fed25104a5d8945bde5162563412a1fd718946cdcacb03088ea08905f90a35050505050505050505050505050505050565b6001600160a01b0381165f9081526004602052604081205460ff16610e445760405162461bcd60e51b815260206004820152603160248201527f53636f7265206e6f7420617661696c61626c65207965742e205265717565737460448201527f2064656372797074696f6e20666972737400000000000000000000000000000060648201526084016103cf565b336001600160a01b03831614610e9c5760405162461bcd60e51b815260206004820152601c60248201527f43616e206f6e6c79207669657720796f7572206f776e2073636f72650000000060448201526064016103cf565b506001600160a01b03165f9081526003602052604090205463ffffffff1690565b335f9081526020819052604090206006810154600160a01b900460ff16610f265760405162461bcd60e51b815260206004820152601760248201527f4e6f206163746976652070726f66696c6520666f756e6400000000000000000060448201526064016103cf565b6006810154600160a81b900460ff16610fa75760405162461bcd60e51b815260206004820152603360248201527f53636f7265206e6f742063616c63756c61746564207965742e2043616c6c206360448201527f616c63756c61746553636f72652066697273740000000000000000000000000060648201526084016103cf565b335f9081526004602052604090205460ff16156110065760405162461bcd60e51b815260206004820152601760248201527f53636f726520616c72656164792064656372797074656400000000000000000060448201526064016103cf565b6040805160018082528183019092525f91602080830190803683375050506004830154909150815f8151811061103e5761103e611e9c565b60209081029190910101525f61105b826302f062b760e51b611410565b5f81815260026020526040808220805473ffffffffffffffffffffffffffffffffffffffff1916339081179091559051929350839290917fe2ab7c8182ba13359586350793fe8fd245aa7f769ed3e60d3cb88e10f476b29f91a3505050565b5f610a338383600461141c565b5f6110d2823061153c565b5090565b5f6110e1838361153c565b5090919050565b5f5f6110f460196115c5565b90505f61110b846111066105db6115c5565b6115dd565b90506111218161111b60326115c5565b8461160b565b91505f61113385611106610bb76115c5565b90506111498161114360646115c5565b8561160b565b92505f61115b866111066113876115c5565b90506111718161116b60966115c5565b8661160b565b93505f61118387611106611d4b6115c5565b90506111998161119360c86115c5565b8761160b565b94505f6111ab8861110661270f6115c5565b90506111c1816111bb60fa6115c5565b8861160b565b98975050505050505050565b5f5f6111d960646115c5565b90505f6111ea84611106603b6115c5565b90506111fa8161111b60966115c5565b91505f61120b8561110660456115c5565b905061121b8161114360c86115c5565b92505f61122c86611106604f6115c5565b905061123c8161116b60fa6115c5565b93505f61124d8761110660596115c5565b905061125e8161119361012c6115c5565b94505f61126f88611106605e6115c5565b90506111c1816111bb61015e6115c5565b5f5f61128c60fa6115c5565b90505f61129d8461110660136115c5565b90506112ad8161111b60c86115c5565b91505f6112be85611106601d6115c5565b90506112ce8161114360966115c5565b92505f6112df8661110660276115c5565b90506112ef8161116b60646115c5565b93505f6113008761110660316115c5565b90506113108161119360326115c5565b94505f6113218861110660406115c5565b90506111c1816111bb60196115c5565b5f5f61133d600a6115c5565b90505f61134e84611106600b6115c5565b905061135e8161111b601e6115c5565b91505f61136f8561110660236115c5565b905061137f81611143603c6115c5565b92505f61139086611106603b6115c5565b90506113a08161116b605a6115c5565b93505f6113b18761110660536115c5565b90506113c18161119360786115c5565b94505f6113d28861110660776115c5565b90506111c1816111bb60966115c5565b5f826113f4576113f15f6115c5565b92505b81611405576114025f6115c5565b91505b610a3383835f61161f565b5f610a3383835f61171a565b7f9e7b61f58c47dc699ac88507c4f5bb9f121c03808c5676a8078fe583e46497015460405163196d0b9b60e01b81525f917f9e7b61f58c47dc699ac88507c4f5bb9f121c03808c5676a8078fe583e4649700916001600160a01b039091169063196d0b9b90611495908890339089908990600401611ed0565b6020604051808303815f875af11580156114b1573d5f5f3e3d5ffd5b505050506040513d601f19601f820116820180604052508101906114d59190611f21565b8154604051630f8e573b60e21b8152600481018390523360248201529193506001600160a01b031690633e395cec906044015f604051808303815f87803b15801561151e575f5ffd5b505af1158015611530573d5f5f3e3d5ffd5b50505050509392505050565b5f7f9e7b61f58c47dc699ac88507c4f5bb9f121c03808c5676a8078fe583e46497008054604051635ca4b5b160e11b8152600481018690526001600160a01b03858116602483015292935091169063b9496b62906044015f604051808303815f87803b1580156115aa575f5ffd5b505af11580156115bc573d5f5f3e3d5ffd5b50505050505050565b5f6115d78263ffffffff166004611848565b92915050565b5f826115ef576115ec5f6115c5565b92505b81611600576115fd5f6115c5565b91505b610a3383835f6118fd565b5f6116178484846119b2565b949350505050565b5f5f82156116325750600160f81b611635565b505f5b7f9e7b61f58c47dc699ac88507c4f5bb9f121c03808c5676a8078fe583e46497015460405163022f65e760e31b815260048101879052602481018690527fff00000000000000000000000000000000000000000000000000000000000000831660448201527f9e7b61f58c47dc699ac88507c4f5bb9f121c03808c5676a8078fe583e4649700916001600160a01b03169063117b2f38906064015b6020604051808303815f875af11580156116ec573d5f5f3e3d5ffd5b505050506040513d601f19601f820116820180604052508101906117109190611f21565b9695505050505050565b7f878245876662ba28a480c5ea71726db859fb50222b0a3d7cbbc21cfa336faf0080547f9e7b61f58c47dc699ac88507c4f5bb9f121c03808c5676a8078fe583e46497008054604051637d6e912360e11b81529293926001600160a01b039091169063fadd224690611790908990600401611f72565b5f604051808303815f87803b1580156117a7575f5ffd5b505af11580156117b9573d5f5f3e3d5ffd5b5050506002820154604051633263b83b60e01b81526001600160a01b039091169150633263b83b9086906117f59087908b908b90600401611f84565b5f604051808303818588803b15801561180c575f5ffd5b505af115801561181e573d5f5f3e3d5ffd5b505050505061182d8387611a5b565b8154825f61183a83611e84565b919050555050509392505050565b7f9e7b61f58c47dc699ac88507c4f5bb9f121c03808c5676a8078fe583e464970154604051639cd07acb60e01b81525f917f9e7b61f58c47dc699ac88507c4f5bb9f121c03808c5676a8078fe583e4649700916001600160a01b0390911690639cd07acb906118bd9087908790600401611fb5565b6020604051808303815f875af11580156118d9573d5f5f3e3d5ffd5b505050506040513d601f19601f820116820180604052508101906116179190611f21565b5f5f82156119105750600160f81b611913565b505f5b7f9e7b61f58c47dc699ac88507c4f5bb9f121c03808c5676a8078fe583e4649701546040516385362ee760e01b815260048101879052602481018690527fff00000000000000000000000000000000000000000000000000000000000000831660448201527f9e7b61f58c47dc699ac88507c4f5bb9f121c03808c5676a8078fe583e4649700916001600160a01b0316906385362ee7906064016116d0565b5f807f9e7b61f58c47dc699ac88507c4f5bb9f121c03808c5676a8078fe583e46497006001810154604051637702dcff60e01b81526004810188905260248101879052604481018690529192506001600160a01b031690637702dcff906064016020604051808303815f875af1158015611a2e573d5f5f3e3d5ffd5b505050506040513d601f19601f82011682018060405250810190611a529190611f21565b95945050505050565b5f8281527f878245876662ba28a480c5ea71726db859fb50222b0a3d7cbbc21cfa336faf0160205260409020547f878245876662ba28a480c5ea71726db859fb50222b0a3d7cbbc21cfa336faf009015611ac857604051633f06d22b60e01b815260040160405180910390fd5b5f83815260018201602090815260409091208351611ae892850190611aee565b50505050565b828054828255905f5260205f20908101928215611b27579160200282015b82811115611b27578251825591602001919060010190611b0c565b506110d29291505b808211156110d2575f8155600101611b2f565b5f60208284031215611b52575f5ffd5b81356001600160a01b0381168114610a33575f5ffd5b5f5f83601f840112611b78575f5ffd5b50813567ffffffffffffffff811115611b8f575f5ffd5b602083019150836020828501011115611ba6575f5ffd5b9250929050565b5f5f5f5f5f5f5f5f5f5f5f5f6101008d8f031215611bc9575f5ffd5b8c359b5067ffffffffffffffff60208e01351115611be5575f5ffd5b611bf58e60208f01358f01611b68565b909b50995060408d0135985067ffffffffffffffff60608e01351115611c19575f5ffd5b611c298e60608f01358f01611b68565b909850965060808d0135955067ffffffffffffffff60a08e01351115611c4d575f5ffd5b611c5d8e60a08f01358f01611b68565b909550935060c08d0135925067ffffffffffffffff60e08e01351115611c81575f5ffd5b611c918e60e08f01358f01611b68565b81935080925050509295989b509295989b509295989b565b634e487b7160e01b5f52604160045260245ffd5b604051601f8201601f1916810167ffffffffffffffff81118282101715611ce657611ce6611ca9565b604052919050565b5f82601f830112611cfd575f5ffd5b813567ffffffffffffffff811115611d1757611d17611ca9565b611d2a601f8201601f1916602001611cbd565b818152846020838601011115611d3e575f5ffd5b816020850160208301375f918101602001919091529392505050565b5f5f5f60608486031215611d6c575f5ffd5b83359250602084013567ffffffffffffffff811115611d89575f5ffd5b611d9586828701611cee565b925050604084013567ffffffffffffffff811115611db1575f5ffd5b8401601f81018613611dc1575f5ffd5b803567ffffffffffffffff811115611ddb57611ddb611ca9565b8060051b611deb60208201611cbd565b91825260208184018101929081019089841115611e06575f5ffd5b6020850192505b83831015611e4c57823567ffffffffffffffff811115611e2b575f5ffd5b611e3a8b602083890101611cee565b83525060209283019290910190611e0d565b80955050505050509250925092565b634e487b7160e01b5f52601160045260245ffd5b5f81611e7d57611e7d611e5b565b505f190190565b5f60018201611e9557611e95611e5b565b5060010190565b634e487b7160e01b5f52603260045260245ffd5b60548110611ecc57634e487b7160e01b5f52602160045260245ffd5b9052565b8481526001600160a01b0384166020820152608060408201525f8351806080840152806020860160a085015e5f60a0828501015260a0601f19601f830116840101915050611a526060830184611eb0565b5f60208284031215611f31575f5ffd5b5051919050565b5f8151808452602084019350602083015f5b82811015611f68578151865260209586019590910190600101611f4a565b5093949350505050565b602081525f610a336020830184611f38565b838152606060208201525f611f9c6060830185611f38565b905063ffffffff60e01b83166040830152949350505050565b82815260408101610a336020830184611eb056fea164736f6c634300081b000a",
  "devdoc": {
    "author": "purple-capsule-vault",
    "details": "Uses FHEVM for fully homomorphic encryption to calculate scores on encrypted data",
    "kind": "dev",
    "methods": {
      "calculateScore()": {
        "details": "Performs homomorphic computation on encrypted data without division (FHE limitation) Uses range-based scoring system for each metric"
      },
      "createProfile(bytes32,bytes,bytes32,bytes,bytes32,bytes,bytes32,bytes)": {
        "params": {
          "debtProof": "Input proof for debt ratio",
          "encryptedCreditHistory": "Encrypted credit history in months",
          "encryptedDebtRatio": "Encrypted debt-to-income ratio (0-100)",
          "encryptedIncome": "Encrypted monthly income",
          "encryptedRepaymentRate": "Encrypted repayment rate (0-100)",
          "historyProof": "Input proof for credit history",
          "incomeProof": "Input proof for income",
          "repaymentProof": "Input proof for repayment rate"
        }
      },
      "getActiveProfileCount()": {
        "returns": {
          "_0": "The count of active credit profiles"
        }
      },
      "getDecryptedScore(address)": {
        "params": {
          "user": "The address of the user"
        },
        "returns": {
          "score": "The decrypted credit score (0-1000)"
        }
      },
      "getEncryptedScore(address)": {
        "params": {
          "user": "The address of the user"
        },
        "returns": {
          "_0": "The encrypted credit score"
        }
      },
      "getProfile(address)": {
        "params": {
          "user": "The address of the user"
        },
        "returns": {
          "isActive": "Whether the profile is active",
          "scoreCalculated": "Whether the score has been calculated",
          "timestamp": "The profile creation/update timestamp"
        }
      },
      "getScoreWeights()": {
        "returns": {
          "debtWeight": "Weight for debt ratio factor (percentage)",
          "historyWeight": "Weight for credit history factor (percentage)",
          "incomeWeight": "Weight for income factor (percentage)",
          "repaymentWeight": "Weight for repayment rate factor (percentage)"
        }
      },
      "hasProfile(address)": {
        "params": {
          "user": "The address to check"
        },
        "returns": {
          "_0": "Whether the user has an active profile"
        }
      },
      "isScoreFinalized(address)": {
        "params": {
          "user": "The address to check"
        },
        "returns": {
          "_0": "Whether the score has been finalized"
        }
      },
      "requestScoreDecryption()": {
        "details": "Only the profile owner can request decryption of their own score"
      },
      "scoreDecryptionCallback(uint256,bytes,bytes[])": {
        "details": "Protected against reentrancy by marking state as finalized before external interactions",
        "params": {
          "cleartexts": "The decrypted data",
          "requestId": "The decryption request ID"
        }
      },
      "updateProfile(bytes32,bytes,bytes32,bytes,bytes32,bytes,bytes32,bytes)": {
        "params": {
          "debtProof": "Input proof for debt ratio",
          "encryptedCreditHistory": "New encrypted credit history",
          "encryptedDebtRatio": "New encrypted debt ratio",
          "encryptedIncome": "New encrypted monthly income",
          "encryptedRepaymentRate": "New encrypted repayment rate",
          "historyProof": "Input proof for credit history",
          "incomeProof": "Input proof for income",
          "repaymentProof": "Input proof for repayment rate"
        }
      }
    },
    "title": "CreditScore - Privacy-Preserving Credit Score System",
    "version": 1
  },
  "userdoc": {
    "errors": {
      "HandlesAlreadySavedForRequestID()": [
        {
          "notice": "Returned if some handles were already saved for corresponding ID."
        }
      ]
    },
    "kind": "user",
    "methods": {
      "activeProfileCount()": {
        "notice": "Total number of active profiles"
      },
      "calculateScore()": {
        "notice": "Calculate encrypted credit score based on encrypted financial metrics"
      },
      "createProfile(bytes32,bytes,bytes32,bytes,bytes32,bytes,bytes32,bytes)": {
        "notice": "Create a new credit profile with encrypted financial metrics"
      },
      "creditProfiles(address)": {
        "notice": "Mapping from user address to their credit profile"
      },
      "deleteProfile()": {
        "notice": "Delete credit profile"
      },
      "getActiveProfileCount()": {
        "notice": "Get total number of active profiles"
      },
      "getDecryptedScore(address)": {
        "notice": "Get decrypted credit score (only available after decryption request)"
      },
      "getEncryptedScore(address)": {
        "notice": "Get encrypted credit score (requires FHE permissions)"
      },
      "getProfile(address)": {
        "notice": "Get user's credit profile information (metadata only, encrypted values require permissions)"
      },
      "getScoreWeights()": {
        "notice": "Get credit score calculation weights"
      },
      "hasProfile(address)": {
        "notice": "Check if user has an active profile"
      },
      "isScoreFinalized(address)": {
        "notice": "Check if user's score has been decrypted"
      },
      "requestScoreDecryption()": {
        "notice": "Request decryption of user's credit score"
      },
      "scoreDecryptionCallback(uint256,bytes,bytes[])": {
        "notice": "Callback for score decryption"
      },
      "updateProfile(bytes32,bytes,bytes32,bytes,bytes32,bytes,bytes32,bytes)": {
        "notice": "Update existing credit profile with new encrypted metrics"
      }
    },
    "notice": "A Web3 credit scoring system where users submit encrypted financial metrics and receive encrypted credit scores",
    "version": 1
  },
  "storageLayout": {
    "storage": [
      {
        "astId": 39068,
        "contract": "contracts/CreditScore.sol:CreditScore",
        "label": "creditProfiles",
        "offset": 0,
        "slot": "0",
        "type": "t_mapping(t_address,t_struct(CreditProfile)39062_storage)"
      },
      {
        "astId": 39071,
        "contract": "contracts/CreditScore.sol:CreditScore",
        "label": "activeProfileCount",
        "offset": 0,
        "slot": "1",
        "type": "t_uint256"
      },
      {
        "astId": 39076,
        "contract": "contracts/CreditScore.sol:CreditScore",
        "label": "_decryptionRequests",
        "offset": 0,
        "slot": "2",
        "type": "t_mapping(t_uint256,t_address)"
      },
      {
        "astId": 39081,
        "contract": "contracts/CreditScore.sol:CreditScore",
        "label": "_decryptedScores",
        "offset": 0,
        "slot": "3",
        "type": "t_mapping(t_address,t_uint32)"
      },
      {
        "astId": 39086,
        "contract": "contracts/CreditScore.sol:CreditScore",
        "label": "_scoreFinalized",
        "offset": 0,
        "slot": "4",
        "type": "t_mapping(t_address,t_bool)"
      }
    ],
    "types": {
      "t_address": {
        "encoding": "inplace",
        "label": "address",
        "numberOfBytes": "20"
      },
      "t_bool": {
        "encoding": "inplace",
        "label": "bool",
        "numberOfBytes": "1"
      },
      "t_mapping(t_address,t_bool)": {
        "encoding": "mapping",
        "key": "t_address",
        "label": "mapping(address => bool)",
        "numberOfBytes": "32",
        "value": "t_bool"
      },
      "t_mapping(t_address,t_struct(CreditProfile)39062_storage)": {
        "encoding": "mapping",
        "key": "t_address",
        "label": "mapping(address => struct CreditScore.CreditProfile)",
        "numberOfBytes": "32",
        "value": "t_struct(CreditProfile)39062_storage"
      },
      "t_mapping(t_address,t_uint32)": {
        "encoding": "mapping",
        "key": "t_address",
        "label": "mapping(address => uint32)",
        "numberOfBytes": "32",
        "value": "t_uint32"
      },
      "t_mapping(t_uint256,t_address)": {
        "encoding": "mapping",
        "key": "t_uint256",
        "label": "mapping(uint256 => address)",
        "numberOfBytes": "32",
        "value": "t_address"
      },
      "t_struct(CreditProfile)39062_storage": {
        "encoding": "inplace",
        "label": "struct CreditScore.CreditProfile",
        "members": [
          {
            "astId": 39041,
            "contract": "contracts/CreditScore.sol:CreditScore",
            "label": "encryptedIncome",
            "offset": 0,
            "slot": "0",
            "type": "t_userDefinedValueType(euint32)41808"
          },
          {
            "astId": 39044,
            "contract": "contracts/CreditScore.sol:CreditScore",
            "label": "encryptedRepaymentRate",
            "offset": 0,
            "slot": "1",
            "type": "t_userDefinedValueType(euint32)41808"
          },
          {
            "astId": 39047,
            "contract": "contracts/CreditScore.sol:CreditScore",
            "label": "encryptedDebtRatio",
            "offset": 0,
            "slot": "2",
            "type": "t_userDefinedValueType(euint32)41808"
          },
          {
            "astId": 39050,
            "contract": "contracts/CreditScore.sol:CreditScore",
            "label": "encryptedCreditHistory",
            "offset": 0,
            "slot": "3",
            "type": "t_userDefinedValueType(euint32)41808"
          },
          {
            "astId": 39053,
            "contract": "contracts/CreditScore.sol:CreditScore",
            "label": "encryptedScore",
            "offset": 0,
            "slot": "4",
            "type": "t_userDefinedValueType(euint32)41808"
          },
          {
            "astId": 39055,
            "contract": "contracts/CreditScore.sol:CreditScore",
            "label": "timestamp",
            "offset": 0,
            "slot": "5",
            "type": "t_uint256"
          },
          {
            "astId": 39057,
            "contract": "contracts/CreditScore.sol:CreditScore",
            "label": "owner",
            "offset": 0,
            "slot": "6",
            "type": "t_address"
          },
          {
            "astId": 39059,
            "contract": "contracts/CreditScore.sol:CreditScore",
            "label": "isActive",
            "offset": 20,
            "slot": "6",
            "type": "t_bool"
          },
          {
            "astId": 39061,
            "contract": "contracts/CreditScore.sol:CreditScore",
            "label": "scoreCalculated",
            "offset": 21,
            "slot": "6",
            "type": "t_bool"
          }
        ],
        "numberOfBytes": "224"
      },
      "t_uint256": {
        "encoding": "inplace",
        "label": "uint256",
        "numberOfBytes": "32"
      },
      "t_uint32": {
        "encoding": "inplace",
        "label": "uint32",
        "numberOfBytes": "4"
      },
      "t_userDefinedValueType(euint32)41808": {
        "encoding": "inplace",
        "label": "euint32",
        "numberOfBytes": "32"
      }
    }
  }
}